:100000000C94B9010C9400020C9400020C940002B0
:100010000C9400020C9400020C9400020C94000258
:100020000C9400020C9400020C94001A0C94D21A46
:100030000C94B3150C9400020C9400020C94000272
:100040000C9400020C9400020C9400020C94000228
:100050000C9400020C940C160C9400020C940002F8
:100060000C9400020C9400020C9400020C94000208
:100070000C9400020C9400020C9400020C940002F8
:100080000C9400020C9400020C9400020C940002E8
:100090000C9400020C9400020C9400020C940002D8
:1000A0000C9400020C9400020C94000258055805B0
:1000B0008A058A05E006E006E006E006D705700638
:1000C0008106810674077407860786077D07860701
:1000D00086078607740774078207860786078207E4
:1000E0003F1B661B5E1C661B5E1CB21BD51B5E1C89
:1000F0002C1C3B1C68747470733A2F2F716D6B2E1F
:10010000666D2F0A00514D4B20697320746865207D
:1001100062657374207468696E6720657665722104
:10012000001E001F002000210022002300240025C3
:1001300000260027005200510014001A0008001584
:100140000017001C0018000C001200130050004F94
:100150000004001600070009000A000B000D000E45
:10016000000F002A003E003F002B001D001B000670
:100170000019000500110010003600280040004161
:1001800000E000E100E2002C000151E5004C0029F4
:10019000003A003B003C003D0035021F00200021DA
:1001A00000220023003800310026002700520051B1
:1001B0000014001A000800150017001C0018000C9D
:1001C000002F00300050004F000400160007000907
:1001D000000A000B000D000E0034002A002D003F25
:1001E000002B001D001B0006001900050011001067
:1001F00000370028002E004100E000E100E2002C62
:10020000000151E5004C0029003A003B003C003D54
:100210000000000000000000002A2B280000000061
:1002200000000000000000000000000029000000A5
:10023000002C1E3420212224342627252E362D374B
:1002400038271E1F202122232425263333362E371C
:10025000381F0405060708090A0B0C0D0E0F1011B4
:1002600012131415161718191A1B1C1D2F313023C1
:100270002D350405060708090A0B0C0D0E0F101189
:1002800012131415161718191A1B1C1D2F3130358F
:100290004C00000000000000000000000000000012
:1002A000000000000000000000000000000000004E
:1002B00000000000007E0F00D4FFFFFFC700000019
:1002C00078100362006C0061006B007200700069BE
:1002D0000000002403440072002000430041004459
:1002E000004900430020005000680069006C00696C
:1002F0000070007000650000000403090409022278
:1003000000010100A0FA0904000001030101000935
:1003100021110100012240000705810308000A1293
:1003200001000200000008EDFE00000100010200D3
:100330000105010906A101050719E029E7150025B6
:10034000019508750181029501750881010507195C
:100350000029FF150026FF00950675088100050895
:100360001901290595057501910295017503910102
:10037000C00011241FBECFEFDAE0DEBFCDBF04B650
:1003800003FE27C08091E9019091EA01A091EB0161
:10039000B091EC018730904BA740B04BD1F4109254
:1003A000E9011092EA011092EB011092EC0114BEE7
:1003B00084B7877F84BF0FB6F894A89580916000BA
:1003C000886180936000109260000FBEE0E0F8E367
:1003D000099511E0A0E0B1E0E2EDF9E302C005907B
:1003E0000D92AE31B107D9F721E0AEE1B1E001C025
:1003F0001D92A93EB207E1F70E949B120C94E71CE4
:100400000C94000083362DE5920721F084369D453B
:1004100041F00FC0FB018281882359F085E091E013
:1004200006C0FB018281882321F084EF90E00E94C6
:10043000A80381E0089581E008950C9402020895D4
:100440000C941F021F93CF93DF9300D000D01F9214
:10045000CDB7DEB749835A836B8330912001898100
:100460009A81311114C0662359F0222349F00E9469
:100470001809182F682F89819A810E94C10803C02A
:100480000E94EC08182F69817A81812F04C00E9494
:10049000180969817A810F900F900F900F900F903B
:1004A000DF91CF911F910C940B10FC01262F4081FE
:1004B00051816281738184810C94220281E00895CC
:1004C000CF93DF93EC0160E00E945502BE01DF9103
:1004D000CF910C9420020E9414110E94B2030C943C
:1004E00051110C944D1108950E9462070E947302ED
:1004F0002FEF84E39CE0215080409040E1F700C062
:1005000000000C9432160F931F93CF93DF938C014E
:1005100061E00E945502EC01B8010E941D0288238F
:10052000F1F1B801CE010E9419138823C1F1B8017D
:10053000CE010E946B13882391F1B801CE010E9475
:100540009614882361F1F8018281882309F1CB3563
:100550008DE5D807C1F050F4C115FCE5DF0781F047
:10056000CF3DDC45A9F40E94290E19C0CC35EDE53C
:10057000DE0761F0CD35DD4559F40E94BA0C08C0A4
:100580000E9474020CC00E94C30C02C00E94C60CE0
:10059000C801DF91CF911F910F910C941B0280E055
:1005A000DF91CF911F910F910895DF92EF92FF920B
:1005B0000F931F93CF93DF93E82FF0E0EF5EFD4F93
:1005C000D490282F26952695269530E0F901EF54F2
:1005D000FD4F0491877010E0082E02C01595079515
:1005E0000A94E2F701701127F901EF55FD4FE490ED
:1005F000F12C082E02C0F594E7940A94E2F791E0FA
:10060000E922FF24F901EF56FD4FC491D0E002C06A
:10061000D595C7958A95E2F7C170DD2701151105BB
:1006200019F081EE0E940C04E114F10419F086EE39
:100630000E940C048D2D0E940A05EF2819F086EE09
:100640000E949404012B19F081EE0E949404CD2B9A
:1006500051F08CE2DF91CF911F910F91FF90EF90BD
:10066000DF900C940A05DF91CF911F910F91FF90BD
:10067000EF90DF900895EF92FF920F931F93CF9327
:10068000DF938C01F62E8AE0E82EF801849188230E
:1006900009F457C0813009F042C0E8012196FE01FB
:1006A0008491813031F42196FE0184910E940A05E3
:1006B00039C0823039F4E8012296FE0184910E940B
:1006C0000C0430C0833039F4E8012296FE01849195
:1006D0000E94940427C0843029F5E8012296FE0187
:1006E000249180E090E030E0205331092A30310538
:1006F00060F4E89EA001E99E500D1124C901840F09
:10070000951F2196FE012491EECF009759F0EFE955
:10071000FFE03197F1F700C000000197F6CF0E948B
:10072000D502E8018E010F5F1F4F8F2D882309F43A
:10073000ACCFEFE9FFE03197F1F700C00000815046
:10074000F5CFDF91CF911F910F91FF90EF9008951A
:1007500060E00C943B0308950C94AB0381E0089592
:100760000C94AE030895CF93C82F0E94AC038C2F36
:100770000E94B003CF910895CF93DF93CDB7DEB73A
:100780002B970FB6F894DEBF0FBECDBF4F835887AF
:1007900069877A878B8761110E94E90C9E012F5F20
:1007A0003F4F86E0F90111928A95E9F785E0FE0155
:1007B0003796D90101900D928A95E1F789819A8146
:1007C0004C815D81452B31F09F3F31F491E08F3FAB
:1007D00019F403C091E001C090E090FF09C0498185
:1007E0005A816B817C818D819E810E94E90B05C0BD
:1007F000C9010E945E028111F2CF2B960FB6F894C8
:10080000DEBF0FBECDBFDF91CF910895FC01808187
:1008100091810E945A090895CF93882309F482C0D8
:10082000C82F8238C1F40E94CC1481FD7BC069E3DB
:1008300080910001909101010E9451150E940E0DBE
:100840002FEF81EE94E0215080409040E1F700C00E
:10085000000069E319C08338F1F40E94CC1480FDD4
:1008600061C063E580910001909101010E945115E2
:100870000E940E0D2FEF81EE94E0215080409040B9
:10088000E1F700C0000063E5809100019091010153
:100890000E94531544C08438C1F40E94CC1482FDD8
:1008A00041C067E480910001909101010E945115BF
:1008B0000E940E0D2FEF81EE94E021508040904079
:1008C000E1F700C0000067E4DFCF8CEF8C0F813AC6
:1008D000D0F46C2F80910001909101010E941B15B2
:1008E000882349F06C2F80910001909101010E94B2
:1008F00053150E940E0D6C2F809100019091010103
:100900000E9451150CC080E28C0F883058F4C770DB
:1009100081E001C0880FCA95EAF70E94CC0CCF9104
:100920000C940E0DCF910895882309F45BC0682FB5
:10093000823879F40E94CC1481FF54C069E380911D
:100940000001909101010E9451150E940E0D69E372
:1009500010C08338B1F40E94CC1480FF43C063E51B
:1009600080910001909101010E9451150E940E0D8D
:1009700063E580910001909101010E9453150C9450
:100980000E0D843879F40E94CC1482FF2BC067E4EA
:1009900080910001909101010E9451150E940E0D5D
:1009A00067E4E7CF8CEF860F813A18F380E2860F79
:1009B000883048F4677081E001C0880F6A95EAF7D3
:1009C0000E94D20CDCCF8BE5860F833020F480E0D0
:1009D00090E00C94E314685A673120F480E090E0D2
:1009E0000C94F91408951F93CF93DF93182FEB0104
:1009F0000E940C04209741F08FE99FE00197F1F7E6
:100A000000C000002197F6CF812FDF91CF911F9179
:100A10000C949404893319F060E070E002C060E542
:100A200070E00C94F304882321F00E94CC0C0C9409
:100A30000E0D0895882321F00E94D20C0C940E0D07
:100A40000895CF92DF92EF92FF920F931F93CF936F
:100A5000DF937C01D62FC72FFC01028115811295EF
:100A60001F700E94A10C882399F0002389F08C2F1D
:100A7000807F803421F080E28D0F883048F082E062
:100A80000E945E0D0E94A10C91E0D82ED92601C0D3
:100A9000D12CCC2EC2948FE0C8228C2D90E08C30CB
:100AA000910508F08DC1FC01EA5AFF4F0C94921C8D
:100AB0008C2F807FCF70882311F0C295C07F0023D8
:100AC00099F0CC2309F468C180E28D0F883010F0D2
:100AD000D11104C08C2F0E94CC0C03C08C2F0E941B
:100AE000DC0C0E940E0D58C18D2F0E949404CC2363
:100AF00009F466C180E28D0F883010F0D11104C076
:100B00008C2F0E94D20C03C08C2F0E94E20C0E94FA
:100B10000E0D56C18C2F807FCF70803211F0C295A0
:100B2000C07FDD2319F0D130C9F022C0002371F05D
:100B3000112341F0113031F40E94EF0C8C2B0E94F4
:100B4000F70C3EC10E94EF0C8C2B1DC0112319F035
:100B5000113009F435C10E94040D25C0002321F095
:100B6000163008F02DC10EC0153008F029C11BC089
:100B7000002361F0112331F0F701858180FF0CC162
:100B80008F7085838C2F0E9413051AC1112359F091
:100B9000D93309F012C1FFEF07EE13E0F150004026
:100BA0001040E1F708C18C2F0E941A0509C18C2F53
:100BB000837009F047C0011107C12D2F229526959A
:100BC0002770220F220F6D2F6F70862F90E0A0E00C
:100BD000B0E0022E04C0880F991FAA1FBB1F0A9401
:100BE000D2F7D4FF10C04FE050E060E070E004C0E6
:100BF000440F551F661F771F2A95D2F740955095D1
:100C00006095709503C040E050E0BA01C695C69566
:100C1000C3708A019B01082B192B2A2B3B2BC9017E
:100C2000B801C23049F058F4C13019F00E94D7071A
:100C3000CBC00E94C507C8C00E94E907C5C00E947A
:100C4000C307C2C0002319F08C2F817001C08695A4
:100C5000882309F4B9C02D2F229526952770220FDD
:100C6000220F6D2F6F70862F90E0A0E0B0E0022E73
:100C700004C0880F991FAA1FBB1F0A94D2F7D4FF84
:100C800010C04FE050E060E070E004C0440F551F1A
:100C9000661F771F2A95D2F74095509560957095FD
:100CA00003C040E050E0BA01C695C695C3708A0102
:100CB0009B01082B192B2A2B3B2BC901B801C230F1
:100CC00049F058F4C13019F00E949C087DC00E9480
:100CD0008A087AC00E94AE0877C00E94FD0774C0DF
:100CE000CF70002339F08C2F0E9423088D2F0E9493
:100CF00013056AC08D2F0E941A058C2F0E9444088C
:100D000063C0D23F01F128F4D03F41F0D13FA1F0C0
:100D10003FC0D33FF9F0D43F39F13AC0002341F04E
:100D2000153008F04DC08C2F8F710E94690848C0A3
:100D3000163008F045C0F7CF002339F08C2F8F71A3
:100D40000E9423083DC00023C9F38C2F8F710E949D
:100D5000440836C0002329F08C2F8F710E940E08A2
:100D60002FC00E9409082CC0002349F0CF718C2F9E
:100D70000E94230863E08C2F0E94430D21C081E074
:100D80000E945E0D1230E0F082E00E945E0D18C0FD
:100D9000002331F0112391F28D2F0E940C0410C01A
:100DA000112399F2D93349F41FEF27EE33E01150A4
:100DB00020403040E1F700C000008D2F0E949404D5
:100DC00088EF8C0D843020F40E94CC140E94B30371
:100DD000DD20C9F00E949D0C80FD15C0F701128234
:100DE0000E94970C0E942308C7010E9424070E94BA
:100DF000970CDF91CF911F910F91FF90EF90DF90B3
:100E0000CF900C944408DF91CF911F910F91FF90E8
:100E1000EF90DF90CF9008950F931F93CF93DF93C0
:100E2000EC01688179818A810E9465098C010E94A8
:100E3000C0080E94B107B801CE010E942105DF91D0
:100E4000CF911F910F910895CF93DF93EC0198817B
:100E500089812B813C81232B31F08F3F31F481E05C
:100E60009F3F19F403C081E001C080E080FD19C0FC
:100E7000CE010E94830281110CC00E94A10C882324
:100E800081F08A81882369F082E0DF91CF910C9410
:100E90005E0DCE010E940C07CE01DF91CF910C9424
:100EA0006002DF91CF9108950E94E90C0E94EC0C42
:100EB0000C940E0D80910001909101010E94551536
:100EC0000C9454070E94D90C0C945A07E92FE29510
:100ED000EF704E2F50E0FA013297EE30F105B0F48A
:100EE000EE59FF4F0C94921C803F91F018F4883E0D
:100EF00068F40EC0843F51F40BC0883E48F0813F37
:100F000029F406C093FB882780F9089580E00895AE
:100F100081E00895FC01808191810E945A090E941C
:100F200066070895CF93DF9300D000D01F92CDB70E
:100F3000DEB70F900F900F900F900F90DF91CF9131
:100F40000895CF93DF9300D000D000D0CDB7DEB7A7
:100F500026960FB6F894DEBF0FBECDBFDF91CF91BE
:100F60000895089508950C94B2070C94B3070E9455
:100F7000B50760934D0170934E0180934F0190939C
:100F800050010C9454070C94B7070F931F930091D2
:100F90004D0110914E0120914F0130915001602B75
:100FA000712B822B932B1F910F910C94B7070F93EA
:100FB0001F9300914D0110914E0120914F013091EE
:100FC000500160237123822393231F910F910C946E
:100FD000B7070F931F9300914D0110914E0120917F
:100FE0004F013091500160277127822793271F916D
:100FF0000F910C94B7070C94B2070E94FB07609303
:10100000490170934A0180934B0190934C010C94D9
:10101000540760E070E0CB010C94FD070F931F9321
:1010200041E050E060E070E08A019B0104C0000FE5
:10103000111F221F331F8A95D2F7C901B8011F91D2
:101040000F910C94FD070F931F9341E050E060E077
:1010500070E004C0440F551F661F771F8A95D2F7B2
:101060008091490190914A01A0914B01B0914C01AE
:101070008A019B01082B192B2A2B3B2BC901B80194
:101080001F910F910C94FD070F931F9341E050E0C7
:1010900060E070E004C0440F551F661F771F8A95FB
:1010A000D2F7409550956095709580914901909147
:1010B0004A01A0914B01B0914C018A019B01082388
:1010C00019232A233B23C901B8011F910F910C94C6
:1010D000FD070F931F9341E050E060E070E004C013
:1010E000440F551F661F771F8A95D2F780914901DB
:1010F00090914A01A0914B01B0914C018A019B0152
:10110000082719272A273B27C901B8011F910F91EA
:101110000C94FD070F931F930091490110914A0110
:1011200020914B0130914C01602B712B822B932B22
:101130001F910F910C94FD070F931F93009149018C
:1011400010914A0120914B0130914C016023712391
:10115000822393231F910F910C94FD070F931F93EC
:101160000091490110914A0120914B0130914C01AD
:1011700060277127822793271F910F910C94FD07F9
:1011800008952CE0929F800D1124E82FE695E695B6
:10119000E695877051E001C0550F8A95EAF785E022
:1011A000E89FF0011124EF5DFE4F20E030E070E099
:1011B0004081CB01022E02C0969587950A94E2F7F2
:1011C0008170819584278523842781932F5F3F4FEA
:1011D0002530310569F708952CE0929F800D112488
:1011E000682F669566956695982F977085E0689F3D
:1011F000B001112440E050E080E0FB01E40FF51F56
:10120000EF5DFE4F208130E0092E02C03695279514
:101210000A94E2F721703327042E01C0220F0A94AA
:10122000EAF7822B4F5F5F4F4530510531F7089544
:10123000BF92CF92DF92EF92FF920F931F93CF93C3
:10124000DF938C01C0904901D0904A01E0904B019E
:10125000F0904C0180914D0190914E01A0914F0171
:10126000B0915001C82AD92AEA2AFB2ACFE1D0E05E
:10127000D701C6010C2E04C0B695A7959795879502
:101280000A94D2F780FD04C0219790F7B12C07C0D3
:10129000BC2EB8018C2F0E941E100197A9F38B2D34
:1012A000DF91CF911F910F91FF90EF90DF90CF9042
:1012B000BF900895CF93DF93EC010E941809BE01FF
:1012C0000E941E10DF91CF9108951F93CF93DF935B
:1012D000EB0190912001992321F0CB010E945A0942
:1012E00013C0882349F0CB010E941809182F682FDA
:1012F000CE010E94C10804C0CB010E94EC08182F47
:10130000BE01812F0E941E10DF91CF911F91089581
:101310001F93CF93DF93C091510116E0809152014A
:10132000C81799F0D0E01C9FF0011D9FF00D11240B
:10133000ED5AFE4F40815181628173818481958194
:101340000E94A1072196C770E9CFDF91CF911F912D
:1013500008954091830150918401609185017091BD
:10136000860180918701909188010C94A1070F93C9
:101370001F93CF93DF938091880182958F7009F03E
:101380005DC080918501882309F458C08091510186
:10139000109152016091830170918401C091860186
:1013A000D091870191E06F3F09F090E0292F06E08E
:1013B000811709F443C0209721F07F3F21F030E0EE
:1013C00003C031E001C0322F90E030FD34C0089FEF
:1013D000F001099FF00D1124DF01AD5ABE4F1196A7
:1013E0003C911197371327C03C91361324C01296B5
:1013F0003C91129731111FC013964D915C91149737
:101400004C1B5D0B483C5105B0F4809188018F70F6
:10141000806180938801E85AFE4F80818F708061DF
:10142000808383E891E00E942407DF91CF911F9190
:101430000F910C94880901968770BACFDF91CF91F4
:101440001F910F9108959F92AF92BF92CF92DF921A
:10145000EF92FF920F931F93CF93DF93CDB7DEB739
:1014600061970FB6F894DEBF0FBECDBF8C0185E04B
:10147000F801DE011D9601900D928A95E1F7F801C1
:10148000E2809091830160918401209186013091E6
:1014900087012115310531F06F3F31F481E09F3F25
:1014A00019F403C081E001C080E0F82FF1709F2E95
:1014B00080FD3FC1F80140815181A380B48083E861
:1014C000C82E81E0D82EF0908501F501E21BF30BC8
:1014D000FF2009F4D9C080918801E83CF10508F0AB
:1014E00095C0282F207F09F052C0561313C049130E
:1014F00011C0FE2CE1100EC08F70806180938801B6
:101500000E94A909C6010E94240780918801F80160
:1015100085834CC1AB2831F05F3F31F481E04F3F10
:1015200019F403C081E001C080E080FD03C081E0C8
:101530008E2502C080E090E0F82FF170FF2E80FF32
:101540001CC0809151012091520136E0821709F4AC
:101550000BC190E0389FF001399FF00D1124ED5A36
:10156000FE4F6181561306C06081461303C062813D
:10157000E61203C001968770E9CFFE2CEE2009F435
:1015800015C18091880181608093880154C05613F1
:1015900006C0491304C0E11002C0F80199C0C80197
:1015A0000E948A07882361F1EE2051F12091880181
:1015B000822F82958F7090E0029774F08091830162
:1015C0009091840198878F831986BB86AA862C8781
:1015D000CE0107960E94240786E0F801A3E8B1E057
:1015E00001900D928A95E1F70E94B7090E94A9091E
:1015F0000AC0561711F1C8010E948A0781112CC038
:10160000C8010E942407FF24F394D0C0282F207F14
:1016100081F77A2DB98AA88A6E2D89890E9492074E
:1016200083E891E00E94240786E0F60111928A95F2
:10163000E9F70E94A909F12CB9C04913DCCFE110E8
:10164000DACFF8018583C8010E94240786E0F601FD
:1016500011928A95E9F7AAC0EE2091F220918801B3
:10166000822F82958F7090E002970CF4B5CF809115
:101670008301909184019A8389831B82BD82AC820D
:101680002E83CE010196A6CFE83CF10508F044C0B8
:10169000FE2CEE2009F4B4CF561330C049132EC0EF
:1016A0002091880120FD21C0822F82958F70482FC4
:1016B00050E041155105C9F0F80125834F3051051F
:1016C00041F08F5F982F9295907F822F8F70892B9A
:1016D0008583C8010E94240786E0F801A3E8B1E0F1
:1016E00001900D928A95E1F73CC086E0F801A3E8ED
:1016F000B1E001900D928A95E1F758C0C8010E94AF
:101700008A07811169CF8091880181608093880167
:10171000C8010E9424074AC07A2DB98AA88A6E2D72
:1017200089890E94920786E0F60111928A95E9F76D
:1017300018C0EE2009F464CFC8010E948A07F82E71
:10174000882309F45DCF86E0F801A3E8B1E00190B9
:101750000D928A95E1F783E891E00E9406040E94C9
:10176000B7090E94A90922C04D875E878D859E8595
:101770000E945A09292F22952F70223028F49F7039
:1017800039F0811105C00BC0243028F49F7049F452
:10179000805E883020F0C8010E9424079F2CF92C1D
:1017A00005C0F8019581907F99F7F9CF8F2D61964B
:1017B0000FB6F894DEBF0FBECDBFDF91CF911F9162
:1017C0000F91FF90EF90DF90CF90BF90AF909F90E0
:1017D00008951F93CF93DF93CDB7DEB72C970FB645
:1017E000F894DEBF0FBECDBF4F83588769877A87D5
:1017F0008B879C87CE0107960E94230A8823D1F00D
:101800009F8188852A853B85232B31F08F3F31F4DA
:1018100081E09F3F19F403C081E001C080E080FDBA
:1018200047C04F81588569857A858B859C850E9444
:10183000A1073EC086E0FE013796DE0111960190B9
:101840000D928A95E1F7FF81E8856A857B856115B0
:10185000710531F0EF3F31F481E0FF3F19F403C02F
:1018600081E001C080E080FD23C02091520130E082
:10187000C9010196877099274091510150E0841762
:101880009507F1F1F983EA837D836C8396E0929F5B
:10189000D001939FB00D1124AD5ABE4FFE01319679
:1018A00001900D929A95E1F7809352010E94880968
:1018B00016E08091510190915201891771F1189FA2
:1018C000C00111248D5A9E4F0E94230A882329F1BA
:1018D000E09151011E9FF0011124ED5AFE4F40810D
:1018E000518162817381848195810E94A1078091D9
:1018F000510190E001968770992780935101D9CFCB
:101900000E9462071092520110925101E3E8F1E047
:1019100086E0DF011D928A95E9F72C960FB6F894C0
:10192000DEBF0FBECDBFDF91CF911F910895809193
:1019300089018595859585950895809189018770A0
:10194000089590918901977081E009F480E00895ED
:101950009091C30192FB222720F9281751F080FBB8
:1019600092F99093C3018091C2019091C3010C94AC
:10197000A50D08958091C30182FB882780F991E02D
:1019800089270C94A80C81E00C94A80C80E00C949E
:10199000A80C80919501089590919501892B8093D1
:1019A00095010895809590919501892380939501E3
:1019B000089510929501089590919401892B809338
:1019C00094010895809590919401892380939401C6
:1019D00008951092940108951092930108958091B2
:1019E0008A01089508950C94F20C0C94F30C9091D4
:1019F000C30192FD08C090918A01981721F080934D
:101A00008A010C94F50C089580918A01882329F0AD
:101A100010928A0180E00C94F50C0895E091000189
:101A2000F0910101809195018083E0910001F09196
:101A30000101908180919401892B8083E0910001C4
:101A4000F0910101908180919301892B8083809195
:101A50008A01882381F0E0910001F09101019081D9
:101A6000892B808380910001909101010E940F15C4
:101A700081110E94040D80910001909101010C944C
:101A8000D8140C94F20C9091C30192FD10C098E010
:101A9000899F90011124262B209389010E942308FD
:101AA000809189018595859585950C94410D0C94BF
:101AB00023081092890180E00C94410D2091890146
:101AC0008095822380938901982F977041F430E0AC
:101AD000482F082E000C550B2417350721F4909140
:101AE000C30192FF07C08595859585950E9444089E
:101AF0000C94590D08956FEF7FEF80E090E00C9407
:101B0000D11C80E090E00E94AD1C21E0893E9E4FF8
:101B100009F020E0822F089582E090E00C94A51C4B
:101B200083E090E00C94A51CCF9384E090E00E94A9
:101B3000A51CC82F82E290E00E94A51C2C2F30E04B
:101B4000A901582BCA01CF910895CF93C92F682FAF
:101B500084E090E00E94B31C6C2F82E290E0CF9171
:101B60000C94B31CAB01BC018FE090E00C94C51C3D
:101B7000AB01BC0183E190E00C94C51C60E070E017
:101B8000CB010C94B80D60E070E0CB010E94B20D67
:101B90000C94BE0D69EE7EEF80E090E00E94D11CB7
:101BA00060E082E090E00E94B31C60E083E090E09F
:101BB0000E94B31C10924D0110924E0110924F01E1
:101BC0001092500160E084E090E00E94B31C60E05D
:101BD00082E290E00E94B31C60E085E090E00E9409
:101BE000B31C60E086E090E00E94B31C6FEF87E0DA
:101BF00090E00E94B31C40E050E0BA0188E090E021
:101C00000E94C51C60E08DE090E00E94B31C40E0A3
:101C100050E0BA0188E190E00E94C51C60E087E1D5
:101C200090E00E94B31C40E050E0BA018CE190E0EB
:101C30000E94C51C60E070E080E290E00E94D11C30
:101C400040E050E0BA0188E190E00E94C51C0C948D
:101C5000C30D0C94CA0D682F8EE090E00C94B31C59
:101C60000E94F1156093A5017093A6018093A701CE
:101C70009093A8016093A1017093A2018093A301A6
:101C80009093A401089585B7806885BF85B7806863
:101C900085BF089581E008950C944A0E08950C9430
:101CA0004E0E0C944E0E0C94510E0C944E0E0C9441
:101CB000550E0C944E0E0E94430E8AEF90E10E9446
:101CC00043160E94590E0C94570E0E944F0E0C940E
:101CD0004E0E0E94DC150E9402120C94530E6F925D
:101CE0007F928F929F92AF92BF92CF92DF92EF92AC
:101CF000FF920F931F93CF93DF93CDB7DEB72A9751
:101D00000FB6F894DEBF0FBECDBF0E941512811131
:101D10000E94300E37E9832E31E0932E00E010E070
:101D2000C02E802F0E9438115C01F40161907190E7
:101D30004F016826792661147104B1F40F5F1F4FBB
:101D40000530110569F78FEF89838A831B820E9412
:101D5000E5158160782F9D838C8349815A816B8141
:101D60008D810E94BC033AC08091A90181FD0E942F
:101D70004111D12CEE24E394F12CC3018E219F213B
:101D8000892B29F10E944C0E8823A9F0DE82CF8294
:101D9000AE20BF2081E0AB2809F480E088870E9454
:101DA000E5158160782F9A8789874E815F816885E4
:101DB0008A850E94BC03000F111FF801E956FE4FEF
:101DC00080819181E826F926F182E08207C0D394D0
:101DD000EE0CFF1CFCE0DF12D0CFB0CF0E94CC1481
:101DE000909196018917D1F00E94CC1480939601AE
:101DF0002A960FB6F894DEBF0FBECDBFDF91CF910C
:101E00001F910F91FF90EF90DF90CF90BF90AF9018
:101E10009F908F907F906F900C94B3032A960FB68B
:101E2000F894DEBF0FBECDBFDF91CF911F910F9110
:101E3000FF90EF90DF90CF90BF90AF909F908F90EA
:101E40007F906F900895CF93DF930E942310EC0151
:101E5000811523E59207A0F5811532E5930708F077
:101E60009EC0811540E29407C0F4811551E09507AA
:101E700008F0CDC0853A910550F48430910508F002
:101E8000C6C0019709F0C0C081E090E0C1C0805E8B
:101E90009109089708F4BBC0B7C0C11581E5D80700
:101EA00008F077C0C11520E5D20708F051C0C11570
:101EB00030E4D30708F4A8C0DF70CE01906AA8C050
:101EC000811546E5940700F5811555E5950708F05D
:101ED00081C0C11584E5D80708F076C0CE018370B3
:101EE000992721E030E002C0220F331F8A95E2F7E4
:101EF0009C2F9695969540E2949FE0011124C22B69
:101F0000D32BCE019A6884C081152AE5920780F40C
:101F1000811539E5930708F066C0811548E59407F7
:101F200008F472C0D82FCC27CE01806F906A70C0A1
:101F300090568115904208F067C08D2F8F710E94D6
:101F4000B710DD27D0628F71AE01582BCA0160C077
:101F5000CE0174E0969587957A95E1F7282F237046
:101F60003C2F337081E090E002C0880F991F3A95B2
:101F7000E2F79C68AC01522B9A019C2F9F709695BA
:101F8000969550E2959FE0011124C9018C2B9D2B61
:101F90003FC0DC2FCC27CE01816F906A39C083709F
:101FA000992721E030E002C0220F331F8A95E2F723
:101FB0009C2F9695969580E2989FE0011124C22B64
:101FC000D32BCE019C6824C0DC2FCC27CE01846F9C
:101FD000906A1EC00E94B7108F7190E0D82FCC2756
:101FE000CE01906215C08F700E94B71094E0D69514
:101FF000C7959A95E1F7CF70D0E0DC2FCC27D06958
:102000009E01282BC90104C080E090E001C0CE01F0
:10201000DF91CF9108952CE3829FC0011124FC0130
:102020002CE0729FE00DF11D1124E60FF11DEE0F63
:10203000FF1FEF5DFE4F8591949108950E940B1054
:102040000E94230F08958238910569F1B0F481331D
:10205000910509F46DC048F48932910509F463C013
:102060008A32910509F469C008958533910509F410
:1020700055C089339105B9F00895833E910569F102
:1020800038F4803E9105B1F0823E910509F1089542
:10209000863E9105A9F1873E9105B9F1843E9105EF
:1020A00009F064C023C02091C20120FD4FC021FD72
:1020B0004DC008958091C20180FD44C08091C3014C
:1020C00080FF44C08091C20184FD42C083EE4DC0B8
:1020D0008091C20182FF38C0F5CF8091C20182FD9C
:1020E00033C08091C30180FD31C0ECCF8091C3012A
:1020F00081FF32C08091C20184FD2AC087EE35C0C5
:102100008091C20183FF26C0F5CF8091C20183FD7B
:1021100021C08091C30181FD1FC0ECCF8091C2011D
:1021200085FD1CC01DC08091C20185FD19C016C06F
:102130008091C20186FD16C017C08091C20186FD44
:1021400013C010C089E311C082EE0FC080EE0DC035
:1021500080E00BC086EE09C084EE07C089E205C0AE
:1021600085E303C08AE201C081E390E00895909185
:10217000C20192FF0DC0282F2871283019F4877FE3
:10218000846006C0282F2471243011F48B7F88606E
:1021900093FF0DC0282F2871283119F4877E8461A0
:1021A00006C0282F2471243111F48B7E8861209180
:1021B000C30120FF0DC0382F3871383019F4877FE4
:1021C000816006C0382F3171313011F48E7F886004
:1021D00021FF0DC0282F2871283119F4877E8161D5
:1021E00006C0282F2171213111F48E7E886194FD63
:1021F000877E089580E008950C947B0D0E9415124F
:102200008FE39CE90197F1F700C000000E941512CE
:1022100080E00E94381180FF04C00E94FC100C94E2
:10222000321608950C94FE100E94810D811102C097
:102230000E94290E0E948C0D8093A9010E94940D8A
:102240009093C3018093C2010E9412110E94900DCD
:10225000682F70E080E090E00E94C3076091490120
:1022600070914A0180914B0190914C010C94FB07B5
:10227000E82FF0E0EE0FFF1FE253FE4F80819181C7
:102280000895089580EA8A95F1F7089500C00895A9
:102290000C94421108950C944A110C944B110C9417
:1022A0004A110C944F11F894E82FE295EF70F0E08A
:1022B00031A1282F2F7081E090E001C0880F2A956E
:1022C000EAF7982F9095932391A392A1892B82A34B
:1022D000789408950F931F93CF93DF93C9E1D1E0D2
:1022E00089918F3F11F00E94531181E0CE31D807C0
:1022F000B9F7CDE0D1E009E111E089918F3F11F00C
:102300000E9453110C171D07C1F7DF91CF911F9148
:102310000F910895AF92BF92CF92DF92EF92FF920A
:102320000F931F93CF93DF938C01C62FD0E0CE0184
:10233000875E9E4F6C01DC019C919F3F09F457C062
:10234000B62EF894E92FE295EF70F0E081A19F702E
:1023500021E030E001C0220F9A95EAF7822B81A399
:1023600082A12095282322A378940E944611EDE0B3
:10237000F1E020E030E0E12CF12C41E050E08191EF
:102380008F3FC1F0A82FA295AF70B0E090966C91EE
:1023900070E08F70DB0102C0B595A7958A95E2F7D2
:1023A000A0FD08C0CA01022E02C0880F991F0A941E
:1023B000E2F702C080E090E0E82AF92A2F5F3F4F61
:1023C0002C303105E1F6F60180818F3F11F00E943B
:1023D000531161E0E114F10409F460E08B2D0E94D7
:1023E0004811CC0FDD1FC00FD11FF982E882DF91A9
:1023F000CF911F910F91FF90EF90DF90CF90BF9002
:10240000AF9008950E946A11E4ECF1E0AEECB1E007
:10241000119211921D921D9281E0EE3CF807C1F7D6
:1024200085E00E9460120C946B02FF920F931F9341
:10243000CF93DF93CDB7DEB72A970FB6F894DEBF00
:102440000FBECDBF8E010F5F1F4F8AE0F8011192C2
:102450008A95E9F7F12C6F2DC8010E948A11F39437
:10246000F5E0FF12F8CF4AE050E0B80184EC91E0CB
:102470000E94981CFF24F394009709F4F12C892BF7
:1024800041F08AE0F801A4ECB1E001900D928A9548
:10249000E1F72F2D45E06EEC71E084EC91E00E94B5
:1024A00061120E9471028F2D2A960FB6F894DEBF3A
:1024B0000FBECDBFDF91CF911F910F91FF90089577
:1024C0000895FF920F931F93CF93DF93F82E092F58
:1024D000162FD72FC42F222349F081E08093AC011F
:1024E0000E94E5159093AB018093AA018091AC0105
:1024F0008823D9F08091AA019091AB010E94FD152B
:10250000059798F0EF2DF02FA12FBD2F80E090E0E0
:102510004C2F50E08417950734F4219131912D937D
:102520003D930196F7CF1092AC01DF91CF911F91AF
:102530000F91FF9008950E945C150E9450170E9411
:1025400069170E947B170E94650EFBCF0F931F93A4
:10255000CF93DF93C42FD22FFC0182818823C9F04F
:102560004093AF010E94E5159093AE018093AD01B9
:1025700080E28C0F883008F057C0C77081E001C03E
:10258000880FCA95EAF7DF91CF911F910F910C94B4
:1025900013058091AF01481330C08091AD01909137
:1025A000AE010E94FD15883C910538F510E21D0F23
:1025B000CD17B9F080E28C0F883040F4C77081E00D
:1025C00001C0880FCA95EAF70E941A05183028F54D
:1025D00081E09D2F977001C0880F9A95EAF70E94BD
:1025E0001305802F0E940A051830F0F4D77081E09F
:1025F00001C0880FDA95EAF70AC080E28C0F8830B4
:1026000098F4C77081E001C0880FCA95EAF7DF919E
:10261000CF911F910F910C941A05802FDF91CF91CC
:102620001F910F910C940A05DF91CF911F910F918B
:1026300008950F939C01CB01243F4CE5340731F101
:1026400088F4293DFCE53F07D9F02A3D4CE53407E5
:1026500079F1283D3C45A9F506E221EE41EE68ED11
:102660007CE52BC0263FFCE53F07E1F0A8F0273FC3
:102670003C4539F507E225EE46EE67EF7CE51DC0E7
:1026800007E225EE45EE69ED7CE517C006E221EE96
:1026900040EE64EF7CE511C007E225EE44EE65EF05
:1026A0007CE50BC006E221EE42EE66EF7CE505C05C
:1026B00008E221E045EE6AED7CE50E94A61280E08A
:1026C00008C0FC018281882319F01092AF0101C07B
:1026D00081E00F910895CF93DF93EC01FB0182819C
:1026E000882309F41FC1C230FCE5DF0708F41BC1D1
:1026F000C6319CE5D90738F09E012B5F3C45293057
:10270000310508F010C10E94940D9093C30180938D
:10271000C201C031ECE5DE0709F4C3C008F041C0D6
:10272000C8308CE5D80709F49AC0F0F4C430ECE561
:10273000DE0709F487C068F4C2308CE5D80709F4D5
:1027400077C0C330DC4509F0E3C08091C2018260EC
:1027500076C0C630ECE5DE0709F46EC008F07BC039
:102760008091C20188606BC0CC308CE5D80709F439
:1027700085C068F4CA30ECE5DE0709F474C008F0DF
:1027800079C00E9462078091C201806858C0CE3033
:102790008CE5D80709F476C008F07FC08091C201AB
:1027A0008BC0CC3FECE5DE0709F44FC018F5C33110
:1027B0008CE5D80709F47DC078F4C131ECE5DE077B
:1027C00009F473C0C231DC4509F0A2C00E9462075F
:1027D0008091C2018F7733C0C5318CE5D80709F4E9
:1027E00072C008F486C0CB3FDC4509F091C08091EF
:1027F000C3013EC0C115FDE5DF0709F45FC058F411
:10280000CE3F9CE5D90709F444C008F43FC080914D
:10281000C30182602DC0C230FDE5DF0709F475C039
:1028200008F45DC0C330DD4509F072C080E06EC0C1
:102830008091C201816003C08091C2018061809358
:10284000C20166C08091C20111C08091C301826043
:102850008093C3015DC08091C2018062F0CF8091FE
:10286000C2018064ECCF8091C20188608460E7CFB0
:102870008160EECF8091C2018E7FE1CF8091C20155
:102880008D7FDDCF8091C201877FD9CF8091C30139
:1028900018C08091C3018D7FDBCF8091C2018F7EF4
:1028A000CECF8091C2018F7DCACF8091C2018F7B34
:1028B000C6CF8091C201877F8B7FC1CF8091C3013A
:1028C0008D7F8E7FC5CF8091C20182FB222720F9A8
:1028D00091E0922790FB82F990FB83F9B0CF809131
:1028E000C301982F909591708E7F892B90FB81F971
:1028F000AFCF0E9462078091C20187FB222720F997
:1029000091E0922790FB87F99ACF81E00E942B0EED
:102910008091C2019091C3010E94A50D0E9462079F
:1029200080E001C081E0DF91CF910895CF93DF93E4
:1029300086319C4541F5EB010E94C90C982F8A8194
:102940002091000130910101882379F09A7A81E089
:1029500009F480E08093B001911102C069E201C0E6
:1029600065E3C9010E9451150AC08091B00181112F
:1029700002C069E201C065E3C9010E9453150E94CB
:102980000E0D80E001C081E0DF91CF91089590931A
:10299000B6018093B5010895E091B501F091B601BB
:1029A000309721F00190F081E02D099480E00895A6
:1029B000E091B501F091B601309721F00280F381EA
:1029C000E02D099408952091B3013091B4012817A6
:1029D000390771F09093B4018093B301E091B50190
:1029E000F091B601309721F00680F781E02D09942F
:1029F00008952091B1013091B2012817390771F083
:102A00009093B2018093B101E091B501F091B601CC
:102A1000309721F00084F185E02D09940895FC01A0
:102A2000329697E080E0915029F021912223D9F34A
:102A30008F5FF9CF0895662349F0FC01329608961E
:102A40002191621729F0E817F907D1F780E008957E
:102A500081E008959C01FC0132969FEF80E0419156
:102A6000461789F09F3F19F4411101C0982F8F5FDD
:102A70008630A9F79F3F39F0F901E90FF11D97FD65
:102A8000FA956283089508959C012A5F3F4FFC01E7
:102A90004281461301C01282019682179307B9F74B
:102AA00008950C942A150C944415029626E0FC0116
:102AB00011922A95E9F70895089508950C945D15EB
:102AC0000C945D15CF930E9460150E9415120E9410
:102AD0005E15C0E08C2F0E943811892B29F4CF5F3E
:102AE000C530C1F780E001C081E0CF9108950C941A
:102AF0005D150C9477158091E001843049F10E94B6
:102B0000791580E00E94B3031092B70120E488E1B8
:102B100090E00FB6F894A895809360000FBE2093C4
:102B2000600083B7817F846083BF83B7816083BF88
:102B30007894889583B78E7F83BF0FB6F894A89555
:102B400080916000886180936000109260000FBEE9
:102B500008950C945D150E9462070E94CC140E9497
:102B6000B3030C94A9151F920F920FB60F92112464
:102B70008F939F93AF93BF938091B701811113C03F
:102B80008091D8019091D901A091DA01B091DB0137
:102B90004196A11DB11D8093D8019093D901A093B6
:102BA000DA01B093DB01BF91AF919F918F910F90AC
:102BB0000FBE0F901F90189582E084BD93E095BDE5
:102BC0009AEF97BD80936E0008952FB7F894809187
:102BD000D8019091D901A091DA01B091DB012FBF0A
:102BE00008952FB7F8946091D8017091D901809120
:102BF000DA019091DB012FBF08959C014FB7F89443
:102C00008091D8019091D901A091DA01B091DB01B6
:102C10004FBF821B930B089578941F920F920FB6AB
:102C20000F9211248F939F93AF93BF938091D801FC
:102C30009091D901A091DA01B091DB010196A11D1B
:102C4000B11D8093D8019093D901A093DA01B0937C
:102C5000DB01BF91AF919F918F910F900FBE0F90AD
:102C60001F90189587E797E79093010880930008D5
:102C70009AE088E10FB6F894A895809360000FBEA3
:102C800090936000FFCF90931F0180931E010895E1
:102C90008091C00108950895CF93DF9321E02093A0
:102CA000E9002FEF3091E800215035FD06C035EDE9
:102CB0003A95F1F700002111F5CF2091E80025FFAA
:102CC00014C0EC0140E050E068E070E00E94F417AE
:102CD0008091E8008E778093E80088E0FE01A8EB01
:102CE000B1E001900D928A95E1F7DF91CF910895BF
:102CF000089508958091DF01811109C00E9485190E
:102D00000E94E2198091E20084608093E2000895BD
:102D10001092DF01089508950895089542E061EC4E
:102D200081E00C94FE188091E201833009F460C0C8
:102D300030F4813071F0823009F499C008958A30FE
:102D400009F485C08B3009F46BC0893009F0A7C045
:102D500020C08091E101813A09F0A1C08091E80092
:102D6000877F8093E8008091E5019091E601892BAF
:102D700021F468E088EB91E003C060E080E090E03F
:102D800070E00E943F188091E8008B778093E80004
:102D900008958091E101813209F081C08091E501BF
:102DA0009091E601892B09F07AC08091E800877F35
:102DB0008093E8008091E80082FD05C08091E001E9
:102DC0008111F8CF6CC02091F3008091F20090E067
:102DD000922B029729F48091F1008B7F813021F4AE
:102DE0008091F1008093C0018091E8008B7753C0FF
:102DF0008091E101813A09F052C08091E501909102
:102E0000E601892B09F04BC08091E800877F809311
:102E1000E8008091E80080FFFCCF80910C0136C073
:102E20008091E1018132D9F58091E5019091E6012F
:102E3000892BA9F58091E800877F8093E8000E94A4
:102E400033198091E30180930C010C946207809107
:102E5000E101813221F58091E800877F8093E800CD
:102E60000E9433198091E4018093C10108958091FB
:102E7000E101813AA1F48091E800877F8093E80026
:102E80008091E80080FFFCCF8091C1018093F10028
:102E90008091E8008E778093E8000C9433190895B0
:102EA00084B7877F84BF0FB6F894A895809160009F
:102EB000886180936000109260000FBE90E080E80F
:102EC0000FB6F89480936100909361000FBE0C944C
:102ED0005B0E0E9485190E94E219E2EEF0E080810B
:102EE0008460808378940E94771C0E94690E82E03F
:102EF00091E00C94C7148091E0018530A9F4809191
:102F0000E001853079F40E947B158091DE018823F1
:102F1000B1F30E946215882391F30E94DE170E948C
:102F20006207EDCF0E94AB150C946F0E0C949817AE
:102F3000292F332723303105C1F058F421303105D2
:102F400079F02230310591F582E290E02DEF32E008
:102F500031C021323105E1F02232310501F126C0C4
:102F600082E190E02FE133E025C09927813091057F
:102F700049F028F00297D1F4E1ECF2E005C0E9EF66
:102F8000F2E002C0E3EDF2E0849190E09F0112C014
:102F9000672B61F489E090E02FE033E00BC0672BF2
:102FA00029F480E490E021E333E004C080E090E085
:102FB00020E030E0FA0131832083089580E189BD6B
:102FC00082E189BD09B400FEFDCF8091D8008F7DDC
:102FD0008093D8008091E00082608093E00080912F
:102FE000E00081FDFCCF0895CF92DF92EF92FF9237
:102FF0000F931F93CF93DF93EC018B017A010E9413
:103000005219811133C0E114F10439F0F7018081C4
:103010009181081B190BC80FD91FC12CD12C011588
:10302000110519F18091E80085FD16C08091E80036
:103030008E778093E800E114F10449F0F701808174
:103040009181C80ED91ED182C08285E00FC00E9436
:103050005219882321F30AC089918093F10001500D
:103060001109FFEFCF1ADF0ADACF80E0DF91CF91AD
:103070001F910F91FF90EF90DF90CF9008952091D6
:10308000E7013091E8012617370748F0611571050F
:1030900039F42091E8002E772093E80001C0B901AF
:1030A000FC0120E06115710579F18091E001882330
:1030B000F1F18530F1F18091E80083FD3CC0809111
:1030C000E80082FD2EC08091E80080FFEBCF2091C8
:1030D000F3008091F20090E0922B6115710551F0A0
:1030E0008830910538F421912093F10061507109E5
:1030F0000196F3CF21E0089709F020E08091E800E5
:103100008E778093E800CECF2111CFCF0AC0809177
:10311000E001882361F0853061F08091E80083FD53
:103120000AC08091E80082FFF2CF80E0089582E03B
:10313000089583E0089581E008952091E70130919A
:10314000E8012617370748F06115710539F4209119
:10315000E8002E772093E80001C0B901FC0120E0CF
:103160006115710591F18091E001882309F440C057
:10317000853009F43FC08091E80083FD3DC0809117
:10318000E80082FD2FC08091E80080FFE9CF209108
:10319000F3008091F20090E0922B6115710559F0D7
:1031A0008830910540F424912093F10031966150CC
:1031B00071090196F2CF21E0089709F020E0809193
:1031C000E8008E778093E800CBCF2111CCCF0AC0E6
:1031D0008091E001882361F0853061F08091E80002
:1031E00083FD0AC08091E80082FFF2CF80E008955D
:1031F00082E0089583E0089581E00895982F973044
:1032000068F59093E900981739F07091EC002091DF
:10321000ED005091F00003C0242F762F50E021FDE7
:1032200002C09F5FECCF3091EB003E7F3093EB000C
:103230003091ED003D7F3093ED003091EB00316037
:103240003093EB007093EC002093ED005093F0006E
:103250002091EE0027FDE5CF80E008958F708093E8
:10326000E90081E008958091E10187FF11C080911C
:10327000E80082FD05C08091E0018111F8CF11C006
:103280008091E8008B770BC08091E001882349F0A2
:103290008091E80080FFF8CF8091E8008E778093DE
:1032A000E80008952091E4003091E50095E6409112
:1032B000EC00842F817040FF23C08091E80080FDE6
:1032C0001DC08091E001882399F0853099F08091AC
:1032D000EB0085FD11C04091E4005091E5002417FA
:1032E000350729F3915011F09A01E1CF84E0089558
:1032F00082E0089583E0089581E0089580E00895D4
:103300004091E80042FFDDCF08950E94F3190E942A
:10331000FB19E0EEF0E0808181608083E8EDF0E071
:1033200080818F77808319BCA7EDB0E08C918E7F70
:103330008C9380818F7E80831092DF0108950F939C
:103340001F93CF93DF930E94F3190E94FB19C8EDDE
:10335000D0E088818F77888388818068888388819E
:103360008F7D888319BC1092E0011092DC011092CD
:10337000DE011092DD0100EE10E0F80180818B7F0C
:10338000808388818160888342E060E080E00E94E1
:10339000FE18E1EEF0E080818E7F8083E2EEF0E0C7
:1033A000808181608083808188608083F801808152
:1033B0008E7F8083888180618883DF91CF911F9188
:1033C0000F910895E8EDF0E080818F7E8083E7ED36
:1033D000F0E080818160808384E082BF81E080931F
:1033E000DF010C949F19E8EDF0E080818E7F8083EF
:1033F0001092E20008951092DA001092E100089510
:103400001F920F920FB60F9211242F933F934F9359
:103410005F936F937F938F939F93AF93BF93EF933C
:10342000FF938091E10082FF0BC08091E20082FF58
:1034300007C08091E1008B7F8093E1000E94761CA1
:103440008091DA0080FF1FC08091D80080FF1BC0F0
:103450008091DA008E7F8093DA008091D90080FF1E
:103460000DC080E189BD82E189BD09B400FEFDCFB8
:1034700081E08093E0010E947A1605C019BC109289
:10348000E0010E9488168091E10080FF19C08091C0
:10349000E20080FF15C08091E2008E7F8093E20001
:1034A0008091E20080618093E2008091D800806288
:1034B0008093D80019BC85E08093E0010E948C16AF
:1034C0008091E10084FF30C08091E20084FF2CC035
:1034D00080E189BD82E189BD09B400FEFDCF809104
:1034E000D8008F7D8093D8008091E1008F7E8093FB
:1034F000E1008091E2008F7E8093E2008091E20003
:1035000081608093E2008091DC01882311F084E0E7
:1035100007C08091E30087FD02C081E001C083E025
:103520008093E0010E948D168091E10083FF29C005
:103530008091E20083FF25C08091E100877F809326
:10354000E10082E08093E0011092DC018091E100D3
:103550008E7F8093E1008091E2008E7F8093E20075
:103560008091E20080618093E20042E060E080E0D0
:103570000E94FE188091F00088608093F0000E9405
:103580008B16FF91EF91BF91AF919F918F917F919A
:103590006F915F914F913F912F910F900FBE0F90C0
:1035A0001F9018951F920F920FB60F9211242F9310
:1035B0003F934F935F936F937F938F939F93AF93BB
:1035C000BF93CF93DF93EF93FF93C091E900CF7048
:1035D0008091EC00D82FD17080FDD0E81092E900E6
:1035E0008091F000877F8093F00078940E94161BF2
:1035F0001092E9008091F00088608093F000CD2B5C
:10360000CF70C093E900FF91EF91DF91CF91BF910F
:10361000AF919F918F917F916F915F914F913F916A
:103620002F910F900FBE0F901F9018951F93CF935F
:10363000DF93CDB7DEB7AA970FB6F894DEBF0FBE03
:10364000CDBFE1EEF1E08091F100819321E0E93E10
:10365000F207C9F70E9493168091E80083FF2EC1FC
:103660008091E1019091E201492F50E04A305105EB
:1036700008F024C1FA01E059FF4F0C94921C8038E5
:1036800021F0823809F01AC108C08091DD019091C3
:10369000DE01992389F082600FC08091E5018F706F
:1036A000873008F00BC18093E9008091EB0085FB27
:1036B000882780F91092E9009091E800977F909315
:1036C000E8008093F1001092F100D1C0282F2D7FE7
:1036D00009F0F4C0882319F0823061F0EFC08091C6
:1036E000E301813009F0EAC0933009F080E0809373
:1036F000DE012EC08091E30181112AC08091E50195
:103700008F702FEF280F263008F0D8C08093E90083
:103710002091EB0020FF1CC0933021F48091EB003E
:10372000806214C09091EB0090619093EB0021E0D7
:1037300030E0A90102C0440F551F8A95E2F740937B
:10374000EA001092EA008091EB0088608093EB0021
:103750001092E9008091E800877F8093E8000E9442
:103760003319ACC08111AAC01091E3011F77809179
:10377000E3008078812B8093E3008091E800877FCD
:103780008093E8000E9433198091E80080FFFCCF0D
:103790008091E30080688093E300111102C082E011
:1037A00001C083E08093E00189C08058823008F036
:1037B00085C08091E3019091E4018C3D53E0950731
:1037C00079F583E08A838AE289834FB7F894DE0132
:1037D000139620E03EE051E2E32FF0E050935700D3
:1037E000E49120FF03C0E295EF703F5FEF708E2FF2
:1037F00090E0EA3010F0C79601C0C0968D939D937B
:103800002F5F243149F74FBF8091E800877F809375
:10381000E8006AE270E0CE0101960E943F1816C0EF
:103820006091E5017091E601AE014F5F5F4F0E942C
:103830009617BC01892B09F441C09091E800977F4D
:103840009093E80089819A810E949D188091E800F8
:103850008B778093E80032C0803881F58091E80052
:10386000877F8093E8008091DC018093F100809154
:10387000E8008E7772CF811121C08091E301909191
:10388000E40199270297D4F48091E800877F809320
:10389000E8008091E3018093DC010E94331980915C
:1038A000DC01811106C08091E30087FD02C081E048
:1038B00001C084E08093E0010E948E168091E800B0
:1038C00083FF0AC08091E800877F8093E8008091A1
:1038D000EB0080628093EB00AA960FB6F894DEBFEF
:1038E0000FBECDBFDF91CF911F9108950895CF9363
:1038F0008091E0018823A1F0C091E900CF70909100
:10390000EC00892F817090FD80E8C82B1092E900AF
:103910008091E80083FD0E94161BCF70C093E900E0
:10392000CF910895EE0FFF1F0590F491E02D0994BB
:10393000FB01DC0104C08D910190801921F44150FC
:103940005040C8F7881B990B0895F999FECF92BD96
:1039500081BDF89A992780B50895A8E1B0E042E0CA
:1039600050E00C94D91C262FF999FECF92BD81BD51
:10397000F89A019700B4021639F01FBA20BD0FB6AD
:10398000F894FA9AF99A0FBE08950396272F0E9489
:10399000B41C0E94B31C252F0E94B41C242F0C942D
:1039A000B41C0196272F0E94B41C0C94B31CDC019C
:1039B000CB01FC01F999FECF06C0F2BDE1BDF89A3A
:1039C000319600B40D9241505040B8F70895F894E4
:0239D000FFCF27
:1039D2008B0148164C16781679164B16013435367B
:0E39E2006667F6F73091929394C6F5F0F1F413
:00000001FF
